{
  "contractName": "RexTokenSale",
  "abi": [
    {
      "inputs": [
        {
          "internalType": "address",
          "name": "_rextoken",
          "type": "address"
        },
        {
          "internalType": "uint256",
          "name": "_tokenPrice",
          "type": "uint256"
        }
      ],
      "stateMutability": "nonpayable",
      "type": "constructor"
    },
    {
      "anonymous": false,
      "inputs": [
        {
          "indexed": true,
          "internalType": "address",
          "name": "buyer",
          "type": "address"
        },
        {
          "indexed": false,
          "internalType": "uint256",
          "name": "numberOfTokens",
          "type": "uint256"
        }
      ],
      "name": "Sell",
      "type": "event"
    },
    {
      "inputs": [],
      "name": "admin",
      "outputs": [
        {
          "internalType": "address payable",
          "name": "",
          "type": "address"
        }
      ],
      "stateMutability": "view",
      "type": "function",
      "constant": true
    },
    {
      "inputs": [],
      "name": "rextoken",
      "outputs": [
        {
          "internalType": "contract RexToken",
          "name": "",
          "type": "address"
        }
      ],
      "stateMutability": "view",
      "type": "function",
      "constant": true
    },
    {
      "inputs": [],
      "name": "tokenPrice",
      "outputs": [
        {
          "internalType": "uint256",
          "name": "",
          "type": "uint256"
        }
      ],
      "stateMutability": "view",
      "type": "function",
      "constant": true
    },
    {
      "inputs": [],
      "name": "tokenSold",
      "outputs": [
        {
          "internalType": "uint256",
          "name": "",
          "type": "uint256"
        }
      ],
      "stateMutability": "view",
      "type": "function",
      "constant": true
    },
    {
      "inputs": [
        {
          "internalType": "uint256",
          "name": "_numberOfTokens",
          "type": "uint256"
        }
      ],
      "name": "buyToken",
      "outputs": [],
      "stateMutability": "payable",
      "type": "function",
      "payable": true
    },
    {
      "inputs": [],
      "name": "endSale",
      "outputs": [],
      "stateMutability": "nonpayable",
      "type": "function"
    }
  ],
  "bytecode": "0x608060405234801561001057600080fd5b50604051610be2380380610be28339818101604052810190610032919061015a565b336000806101000a81548173ffffffffffffffffffffffffffffffffffffffff021916908373ffffffffffffffffffffffffffffffffffffffff16021790555081600160006101000a81548173ffffffffffffffffffffffffffffffffffffffff021916908373ffffffffffffffffffffffffffffffffffffffff16021790555080600281905550505061019a565b600080fd5b600073ffffffffffffffffffffffffffffffffffffffff82169050919050565b60006100f1826100c6565b9050919050565b610101816100e6565b811461010c57600080fd5b50565b60008151905061011e816100f8565b92915050565b6000819050919050565b61013781610124565b811461014257600080fd5b50565b6000815190506101548161012e565b92915050565b60008060408385031215610171576101706100c1565b5b600061017f8582860161010f565b925050602061019085828601610145565b9150509250929050565b610a39806101a96000396000f3fe6080604052600436106100555760003560e01c80632d296bf11461005a578063380d831b14610076578063519ee19e1461008d5780637ff9b596146100b85780639195a036146100e3578063f851a4401461010e575b600080fd5b610074600480360381019061006f91906105fe565b610139565b005b34801561008257600080fd5b5061008b61030b565b005b34801561009957600080fd5b506100a2610536565b6040516100af919061063a565b60405180910390f35b3480156100c457600080fd5b506100cd61053c565b6040516100da919061063a565b60405180910390f35b3480156100ef57600080fd5b506100f8610542565b60405161010591906106d4565b60405180910390f35b34801561011a57600080fd5b50610123610568565b6040516101309190610710565b60405180910390f35b6101458160025461058c565b341461015057600080fd5b80600160009054906101000a900473ffffffffffffffffffffffffffffffffffffffff1673ffffffffffffffffffffffffffffffffffffffff166370a08231306040518263ffffffff1660e01b81526004016101ac919061074c565b602060405180830381865afa1580156101c9573d6000803e3d6000fd5b505050506040513d601f19601f820116820180604052508101906101ed919061077c565b10156101f857600080fd5b600160009054906101000a900473ffffffffffffffffffffffffffffffffffffffff1673ffffffffffffffffffffffffffffffffffffffff1663a9059cbb33836040518363ffffffff1660e01b81526004016102559291906107a9565b6020604051808303816000875af1158015610274573d6000803e3d6000fd5b505050506040513d601f19601f82011682018060405250810190610298919061080a565b6102a157600080fd5b80600360008282546102b39190610866565b925050819055503373ffffffffffffffffffffffffffffffffffffffff167f5e5e995ce3133561afceaa51a9a154d5db228cd7525d34df5185582c18d3df0982604051610300919061063a565b60405180910390a250565b60008054906101000a900473ffffffffffffffffffffffffffffffffffffffff1673ffffffffffffffffffffffffffffffffffffffff163373ffffffffffffffffffffffffffffffffffffffff1614610399576040517f08c379a0000000000000000000000000000000000000000000000000000000008152600401610390906108f7565b60405180910390fd5b600160009054906101000a900473ffffffffffffffffffffffffffffffffffffffff1673ffffffffffffffffffffffffffffffffffffffff1663a9059cbb60008054906101000a900473ffffffffffffffffffffffffffffffffffffffff16600160009054906101000a900473ffffffffffffffffffffffffffffffffffffffff1673ffffffffffffffffffffffffffffffffffffffff166370a08231306040518263ffffffff1660e01b8152600401610453919061074c565b602060405180830381865afa158015610470573d6000803e3d6000fd5b505050506040513d601f19601f82011682018060405250810190610494919061077c565b6040518363ffffffff1660e01b81526004016104b1929190610938565b6020604051808303816000875af11580156104d0573d6000803e3d6000fd5b505050506040513d601f19601f820116820180604052508101906104f4919061080a565b6104fd57600080fd5b60008054906101000a900473ffffffffffffffffffffffffffffffffffffffff1673ffffffffffffffffffffffffffffffffffffffff16ff5b60035481565b60025481565b600160009054906101000a900473ffffffffffffffffffffffffffffffffffffffff1681565b60008054906101000a900473ffffffffffffffffffffffffffffffffffffffff1681565b6000808214806105b45750828283856105a59190610961565b9250826105b291906109d2565b145b6105bd57600080fd5b92915050565b600080fd5b6000819050919050565b6105db816105c8565b81146105e657600080fd5b50565b6000813590506105f8816105d2565b92915050565b600060208284031215610614576106136105c3565b5b6000610622848285016105e9565b91505092915050565b610634816105c8565b82525050565b600060208201905061064f600083018461062b565b92915050565b600073ffffffffffffffffffffffffffffffffffffffff82169050919050565b6000819050919050565b600061069a61069561069084610655565b610675565b610655565b9050919050565b60006106ac8261067f565b9050919050565b60006106be826106a1565b9050919050565b6106ce816106b3565b82525050565b60006020820190506106e960008301846106c5565b92915050565b60006106fa82610655565b9050919050565b61070a816106ef565b82525050565b60006020820190506107256000830184610701565b92915050565b600061073682610655565b9050919050565b6107468161072b565b82525050565b6000602082019050610761600083018461073d565b92915050565b600081519050610776816105d2565b92915050565b600060208284031215610792576107916105c3565b5b60006107a084828501610767565b91505092915050565b60006040820190506107be600083018561073d565b6107cb602083018461062b565b9392505050565b60008115159050919050565b6107e7816107d2565b81146107f257600080fd5b50565b600081519050610804816107de565b92915050565b6000602082840312156108205761081f6105c3565b5b600061082e848285016107f5565b91505092915050565b7f4e487b7100000000000000000000000000000000000000000000000000000000600052601160045260246000fd5b6000610871826105c8565b915061087c836105c8565b925082820190508082111561089457610893610837565b5b92915050565b600082825260208201905092915050565b7f61646d696e206f6e6c7900000000000000000000000000000000000000000000600082015250565b60006108e1600a8361089a565b91506108ec826108ab565b602082019050919050565b60006020820190508181036000830152610910816108d4565b9050919050565b6000610922826106a1565b9050919050565b61093281610917565b82525050565b600060408201905061094d6000830185610929565b61095a602083018461062b565b9392505050565b600061096c826105c8565b9150610977836105c8565b9250828202610985816105c8565b9150828204841483151761099c5761099b610837565b5b5092915050565b7f4e487b7100000000000000000000000000000000000000000000000000000000600052601260045260246000fd5b60006109dd826105c8565b91506109e8836105c8565b9250826109f8576109f76109a3565b5b82820490509291505056fea264697066735822122081b7a95417d96f4619b2707f6992b35ab7756fe4aedc79f98ad380ff9157de0664736f6c63430008110033",
  "immutableReferences": {},
  "source": "//SPDX-License-Identifier: MIT\r\npragma solidity 0.8.17;\r\n\r\nimport \"./RexToken.sol\";\r\n\r\ncontract RexTokenSale {\r\n    event Sell(address indexed buyer, uint256 numberOfTokens);\r\n\r\n    address payable public admin;\r\n    RexToken public rextoken;\r\n    uint256 public tokenPrice;\r\n    uint256 public tokenSold;\r\n\r\n    constructor(address _rextoken, uint256 _tokenPrice) {\r\n        admin = payable(msg.sender);\r\n        rextoken = RexToken(_rextoken);\r\n        tokenPrice = _tokenPrice;\r\n    }\r\n\r\n    function multiply(uint256 x, uint256 y) internal pure returns (uint256 z) {\r\n        require(y == 0 || (z = x * y) / y == x);\r\n    }\r\n\r\n    function buyToken(uint256 _numberOfTokens) public payable {\r\n        require(msg.value == multiply(_numberOfTokens, tokenPrice));\r\n        require(rextoken.balanceOf(address(this)) >= _numberOfTokens);\r\n        require(rextoken.transfer(msg.sender, _numberOfTokens));\r\n\r\n        tokenSold += _numberOfTokens;\r\n        emit Sell(msg.sender, _numberOfTokens);\r\n    }\r\n\r\n    function endSale() public {\r\n        require(msg.sender == admin, \"admin only\");\r\n        require(rextoken.transfer(admin, rextoken.balanceOf(address(this))));\r\n\r\n        selfdestruct(admin);\r\n    }\r\n}\r\n",
  "sourcePath": "C:\\Users\\OLANREWAJU\\Desktop\\Portfolio\\Token_ICO\\contracts\\RexTokenSale.sol",
  "compiler": {
    "name": "solc",
    "version": "0.8.17+commit.8df45f5f.Emscripten.clang"
  },
  "schemaVersion": "3.4.10",
  "updatedAt": "2022-12-28T00:29:10.134Z",
  "networkType": "ethereum",
  "devdoc": {
    "kind": "dev",
    "methods": {},
    "version": 1
  },
  "userdoc": {
    "kind": "user",
    "methods": {},
    "version": 1
  }
}