{
  "contractName": "RexTokenSale",
  "abi": [
    {
      "inputs": [
        {
          "internalType": "address",
          "name": "_rextoken",
          "type": "address"
        },
        {
          "internalType": "uint256",
          "name": "_tokenPrice",
          "type": "uint256"
        }
      ],
      "stateMutability": "nonpayable",
      "type": "constructor"
    },
    {
      "anonymous": false,
      "inputs": [
        {
          "indexed": true,
          "internalType": "address",
          "name": "buyer",
          "type": "address"
        },
        {
          "indexed": false,
          "internalType": "uint256",
          "name": "numberOfTokens",
          "type": "uint256"
        }
      ],
      "name": "Sell",
      "type": "event"
    },
    {
      "inputs": [],
      "name": "admin",
      "outputs": [
        {
          "internalType": "address payable",
          "name": "",
          "type": "address"
        }
      ],
      "stateMutability": "view",
      "type": "function",
      "constant": true
    },
    {
      "inputs": [],
      "name": "rextoken",
      "outputs": [
        {
          "internalType": "contract RexToken",
          "name": "",
          "type": "address"
        }
      ],
      "stateMutability": "view",
      "type": "function",
      "constant": true
    },
    {
      "inputs": [],
      "name": "tokenPrice",
      "outputs": [
        {
          "internalType": "uint256",
          "name": "",
          "type": "uint256"
        }
      ],
      "stateMutability": "view",
      "type": "function",
      "constant": true
    },
    {
      "inputs": [],
      "name": "tokenSold",
      "outputs": [
        {
          "internalType": "uint256",
          "name": "",
          "type": "uint256"
        }
      ],
      "stateMutability": "view",
      "type": "function",
      "constant": true
    },
    {
      "inputs": [
        {
          "internalType": "uint256",
          "name": "_numberOfTokens",
          "type": "uint256"
        }
      ],
      "name": "buyToken",
      "outputs": [],
      "stateMutability": "payable",
      "type": "function",
      "payable": true
    },
    {
      "inputs": [],
      "name": "endSale",
      "outputs": [],
      "stateMutability": "nonpayable",
      "type": "function"
    }
  ],
  "bytecode": "0x608060405234801561001057600080fd5b5060405161059538038061059583398101604081905261002f91610066565b60008054336001600160a01b031991821617909155600180549091166001600160a01b0393909316929092179091556002556100a0565b6000806040838503121561007957600080fd5b82516001600160a01b038116811461009057600080fd5b6020939093015192949293505050565b6104e6806100af6000396000f3fe6080604052600436106100555760003560e01c80632d296bf11461005a578063380d831b1461006f578063519ee19e146100845780637ff9b596146100ad5780639195a036146100c3578063f851a440146100fb575b600080fd5b61006d6100683660046103f3565b61011b565b005b34801561007b57600080fd5b5061006d610276565b34801561009057600080fd5b5061009a60035481565b6040519081526020015b60405180910390f35b3480156100b957600080fd5b5061009a60025481565b3480156100cf57600080fd5b506001546100e3906001600160a01b031681565b6040516001600160a01b0390911681526020016100a4565b34801561010757600080fd5b506000546100e3906001600160a01b031681565b610127816002546103c0565b341461013257600080fd5b6001546040516370a0823160e01b815230600482015282916001600160a01b0316906370a0823190602401602060405180830381865afa15801561017a573d6000803e3d6000fd5b505050506040513d601f19601f8201168201806040525081019061019e919061040c565b10156101a957600080fd5b60015460405163a9059cbb60e01b8152336004820152602481018390526001600160a01b039091169063a9059cbb906044016020604051808303816000875af11580156101fa573d6000803e3d6000fd5b505050506040513d601f19601f8201168201806040525081019061021e9190610425565b61022757600080fd5b80600360008282546102399190610464565b909155505060405181815233907f5e5e995ce3133561afceaa51a9a154d5db228cd7525d34df5185582c18d3df099060200160405180910390a250565b6000546001600160a01b031633146102c15760405162461bcd60e51b815260206004820152600a60248201526961646d696e206f6e6c7960b01b604482015260640160405180910390fd5b6001546000546040516370a0823160e01b81523060048201526001600160a01b039283169263a9059cbb92169083906370a0823190602401602060405180830381865afa158015610316573d6000803e3d6000fd5b505050506040513d601f19601f8201168201806040525081019061033a919061040c565b6040516001600160e01b031960e085901b1681526001600160a01b03909216600483015260248201526044016020604051808303816000875af1158015610385573d6000803e3d6000fd5b505050506040513d601f19601f820116820180604052508101906103a99190610425565b6103b257600080fd5b6000546001600160a01b0316ff5b60008115806103e4575082826103d68183610477565b92506103e2908361048e565b145b6103ed57600080fd5b92915050565b60006020828403121561040557600080fd5b5035919050565b60006020828403121561041e57600080fd5b5051919050565b60006020828403121561043757600080fd5b8151801515811461044757600080fd5b9392505050565b634e487b7160e01b600052601160045260246000fd5b808201808211156103ed576103ed61044e565b80820281158282048414176103ed576103ed61044e565b6000826104ab57634e487b7160e01b600052601260045260246000fd5b50049056fea2646970667358221220ca1d9054d875a3b33a589beffb50421a2b76aecd003bc54102b242f53b1752e564736f6c63430008110033",
  "immutableReferences": {},
  "source": "//SPDX-License-Identifier: MIT\r\npragma solidity 0.8.17;\r\n\r\nimport \"./RexToken.sol\";\r\n\r\ncontract RexTokenSale {\r\n    event Sell(address indexed buyer, uint256 numberOfTokens);\r\n\r\n    address payable public admin;\r\n    RexToken public rextoken;\r\n    uint256 public tokenPrice;\r\n    uint256 public tokenSold;\r\n\r\n    constructor(address _rextoken, uint256 _tokenPrice) {\r\n        admin = payable(msg.sender);\r\n        rextoken = RexToken(_rextoken);\r\n        tokenPrice = _tokenPrice;\r\n    }\r\n\r\n    function multiply(uint256 x, uint256 y) internal pure returns (uint256 z) {\r\n        require(y == 0 || (z = x * y) / y == x);\r\n    }\r\n\r\n    function buyToken(uint256 _numberOfTokens) public payable {\r\n        require(msg.value == multiply(_numberOfTokens, tokenPrice));\r\n        require(rextoken.balanceOf(address(this)) >= _numberOfTokens);\r\n        require(rextoken.transfer(msg.sender, _numberOfTokens));\r\n\r\n        tokenSold += _numberOfTokens;\r\n        emit Sell(msg.sender, _numberOfTokens);\r\n    }\r\n\r\n    function endSale() public {\r\n        require(msg.sender == admin, \"admin only\");\r\n        require(rextoken.transfer(admin, rextoken.balanceOf(address(this))));\r\n\r\n        selfdestruct(admin);\r\n    }\r\n}\r\n",
  "sourcePath": "C:\\Users\\OLANREWAJU\\Desktop\\Portfolio\\Token_ICO\\contracts\\RexTokenSale.sol",
  "compiler": {
    "name": "solc",
    "version": "0.8.17+commit.8df45f5f.Emscripten.clang"
  },
  "schemaVersion": "3.4.10",
  "updatedAt": "2022-12-30T00:27:26.479Z",
  "networkType": "ethereum",
  "devdoc": {
    "kind": "dev",
    "methods": {},
    "version": 1
  },
  "userdoc": {
    "kind": "user",
    "methods": {},
    "version": 1
  }
}